S0120000736C6176655F756E69742E73726563D8
S11300000C9450000C9465000C9465000C946500ED
S11300100C9465000C9465000C9465000C946500C8
S11300200C9465000C9465000C9465000C946500B8
S11300300C9465000C9465000C9465000C946500A8
S11300400C9465000C9465000C9465000C94650098
S11300500C9465000C9465000C9465000C94650088
S11300600C9465000C9465000C9465000C94650078
S11300700C9465000C9465000C946500D703560439
S1130080CD042E056905AE05F705C406AF07D103F7
S11300909E08430A210A4A0A280A540A320A3C0AD8
S11300A011241FBECFEFD0E1DEBFCDBF11E0A0E031
S11300B0B1E0E6EBF5E102C005900D92A430B10782
S11300C0D9F70E94800A0C94D90A0C94000080E0AD
S11300D0ADEEB0E03EEE20E0982F9295907F9C9399
S11300E0E32FF22F1192E83FF105E1F78F5F86309D
S11300F099F708958295807F8093ED00EEEEF0E00D
S11301001192E83FF105E1F70895EDEEF0E020816A
S113011010828091EF00807C69F081E0ADEEB0E068
S1130120EFEEF0E0982F9295907F9C939081907CD5
S113013029F401C080E02093ED0008958F5F86309C
S113014089F72093ED008FEF08952F923F924F92FD
S11301505F926F927F928F929F92AF92BF92CF9253
S1130160DF92EF92FF920F931F93CF93DF93CDB75C
S1130170DEB728970FB6F894DEBF0FBECDBF882335
S113018009F45BC08091E2008E7790E095958795A5
S1130190019602973CF08091E2008E7786958F5FFE
S11301A08B8302C081E08B838091E3008E7090E0AA
S11301B095958795019602973CF08091E3008E70A7
S11301C0B82EB694B39402C0BB24B3948091E400D7
S11301D08E7090E0959587950196039734F0609121
S11301E0E4006E7066956F5F01C062E08091E40088
S11301F0807790E0959587959595879595958795C2
S113020095958795019603973CF07091E40070777B
S113021072957F707F5F01C072E0862F90E08B0D36
S1130220911D870F911D01968830910514F488E083
S113023090E0F82EE12C41E00EC0EE24E39440E07F
S113024072E062E06894FF24F3F80F2EF3E0BF2E0F
S1130250F02D91E09B8380E0ADEEB0E03EEE20E037
S1130260982F9295907F9C93E32FF22F1192E83F61
S1130270F105E1F78F5F863099F7EA82542F512C0C
S11302801F821E82212C0F2EF8ED6F2E712CF02D63
S1130290AA24A394E9EDF0E00F2EFAED8F2E912C11
S11302A0F02D00E0A982402E6894332431F8A8E0B0
S11302B0A887BA81B13009F056C0D301AC928E81BF
S11302C09F8101969F838E838B818150880FA2EE3C
S11302D0B0E08C93272F269530E021503109220F6E
S11302E0331F22953295307F3227207F32278B2D82
S11302F090E00197880F991F822BA3EEB0E08C93B6
S1130300272F30E02150310922953295307F322752
S1130310207F3227862F90E00197880F991F822B28
S11303208160A4EEB0E08C938E819F819695879531
S11303309695879596958795A5EEB0E08C93ADEE4E
S1130340B0E01C92AEEEB0E01C9280E8AFEEB0E0FC
S11303508C938AE0D3018C93808182FFFDCF8FEF51
S1130360D4018C93202E91E0E91236C02E2DAEEEEE
S1130370B0E08C9185FF0BC0AFEEB0E08C918F7331
S11303808C93D3011C92808182FDFDCF89C08F7133
S113039011F4922F02C05981942DD4018C9185FFC0
S11303A010C0211005C03C9130623C93298009C0E3
S11303B0D4019C9190629C938F7029F45A2D902FB4
S11303C007C08F7019F0EA821A2D6CC0913079F24F
S11303D0D52EE92E1A2D02C0D52E1A2DB1E0DB122E
S11303E059C0CD2CDF01FF2D41116F5F6930F8F04A
S11303F07830E8F0F93129F0FF5F442D732D632D37
S1130400F3CFEB81E03439F0EF5FEB83442D732DB0
S1130410632DF885E9CFFD01AFEEB0E08C918F73C9
S11304208C93D3011C92808182FDFDCF3EC0663047
S113043058F0262F30E0872F90E00196821793071B
S113044024F47F5F672F01C0762F872F860FEF2F4D
S1130450E81B8E2FBB24BA94BE0E8250883098F5C8
S1130460872F90E02B2D30E02F5F3F4F260F311D5B
S1130470AC01440F551F440F551F421753072CF16D
S1130480AC01440F551F840F951F28173907B4F486
S11304904C2DAACF5D2DD42E1130C9F44D2D09CF8A
S11304A05A2C102FD12EE02E99CF502E102FD02E53
S11304B072E062E06894FF24F3F803C0FF2EFD01AC
S11304C0EA2C502FE9CF4C2D8FCF4C2D8DCF852D7D
S11304D028960FB6F894DEBF0FBECDBFDF91CF9143
S11304E01F910F91FF90EF90DF90CF90BF90AF904E
S11304F09F908F907F906F905F904F903F902F9040
S113050008958230F9F028F4882349F0813081F08D
S11305100895843059F100F1853091F108951092D5
S1130520E20084E08093E30083E18093E400089593
S113053082E08093E20084E08093E30083E180938F
S1130540E400089582E08093E2008CE08093E3006D
S113055087E38093E400089582E08093E2008EE0D4
S11305608093E3008BE48093E400089586E0809315
S1130570E2008CE08093E30087E38093E400089535
S113058088E08093E2008CE08093E30087E380932B
S1130590E40008958230F9F028F4882349F081308A
S11305A081F00895843059F100F1853091F1089576
S11305B01092E20088E08093E30085E28093E400F7
S11305C0089582E08093E20088E08093E30085E26E
S11305D08093E400089584E08093E2008CE08093AB
S11305E0E30087E38093E400089584E08093E200CD
S11305F08EE08093E3008BE48093E40008958AE026
S11306008093E2008CE08093E30087E38093E4002E
S113061008958AE08093E2008EE08093E3008BE407
S11306208093E4000895823001F128F4882349F08E
S1130630813089F00895843061F108F1853099F1B1
S1130640089582E08093E20084E08093E30083E1F4
S11306508093E400089586E08093E20084E0809330
S1130660E30083E18093E400089586E08093E20050
S11306708CE08093E30087E38093E400089588E0AE
S11306808093E2008CE08093E30087E38093E400AE
S113069008958EE08093E2008CE08093E30087E38A
S11306A08093E400089582E18093E2008CE08093DB
S11306B0E30087E38093E4000895813041F018F06B
S11306C0823049F00895862F0E9481020895862F72
S11306D00E94CA020895862F0E941303089591E090
S11306E09093D800663021F480E00E94A50002C0F7
S11306F00E945D030E946700E8EDF0E08081826063
S113070080838FEF8093DE008093DF0080EA809304
S1130710DB0008950F931F93CF93DF9300D000D095
S1130720CDB7DEB78C01DC0111968C9111978C301A
S1130730B1F41D968C911D97803669F48C91829545
S1130740807F8093ED00EFEEF0E080818F738083F3
S11307501092EE001C92F801158680E0A3C50E9459
S113076085008F3F09F499C590E6D8011D969C93A6
S11307701D978C938295807F8093ED00EEEEF0E0E0
S11307801192E83FF105E1F7F801418150E0FA01E7
S11307903197EB30F10508F07CC5E25CFF4F0C9417
S11307A0D30AD8011A968C9181116DC47EC4F801C4
S11307B08785882369F194819295969597708581B0
S11307C0880F880F880F890F8093F3009381929587
S11307D0969597708481880F880F880F890F80936E
S11307E0F20092819295969597708381880F880F75
S11307F0880F890F8093F1008281880F880F880FFA
S11308008093F000EFEEF0E080818061808317C078
S113081082818695869586959381B0E29B9F800D13
S113082011248093F300F80182818295880F807EE1
S11308308093F200EFEEF0E080818F7E8083D80118
S11308401A968C91882391F080E02AEF30E0D80149
S11308501B96ED91FC911C97E80FF11D9081F90115
S113086090838F5F1A969C91891788F3D8011E96FE
S11308708C91882331F0E0EFF0E080818460808304
S113088005C0E0EFF0E080818B7F8083EFEEF0E045
S11308909081D8011A968C91892B808380818F73E3
S11308A0808380818064808380E0FCC4F801878534
S11308B0882369F194819295969597708581880F24
S11308C0880F880F890F8093F300938192959695F2
S11308D097708481880F880F880F890F8093F200A6
S11308E092819295969597708381880F880F880FCF
S11308F0890F8093F1008281880F880F880F80937D
S1130900F000EFEEF0E080818061808317C0828187
S11309108695869586959381B0E29B9F800D1124E0
S11309208093F300F80182818295880F807E809302
S1130930F200EFEEF0E080818F7E8083D8011A967A
S11309408C91882391F080E02AEF30E0D8011B9647
S1130950ED91FC911C97E80FF11D9081F9019083B2
S11309608F5F1A969C91891788F3D8011E961C9262
S11309701E97E0EFF0E080818B7F8083EFEEF0E064
S113098090811A968C91892B808380818F738083C8
S113099080818064808380E085C4F8018785882312
S11309A069F194819295969597708581880F880F47
S11309B0880F890F8093F300938192959695977091
S11309C08481880F880F880F890F8093F2009281A9
S11309D09295969597708381880F880F880F890F59
S11309E08093F1008281880F880F880F8093F00034
S11309F0EFEEF0E080818061808317C0828186956C
S1130A00869586959381B0E29B9F800D11248093F7
S1130A10F300F80182818295880F807E8093F20032
S1130A20EFEEF0E080818F7E808381E0D8011E9616
S1130A308C931E97E0EFF0E0808184608083EFEE7A
S1130A40F0E090811A968C91892B808380818F733A
S1130A50808380818064808380E024C419821A8228
S1130A601B821C821092F7009A819295969597703A
S1130A708B81880F880F880F890F8093F6009981E6
S1130A809295969597708A81880F880F880F890FA1
S1130A908093F5008981880F880F880F24EF30E058
S1130AA0F9018083EFEEF0E09081D8011A968C91E1
S1130AB0892B8083D9018C918B7F8C938C918E7F31
S1130AC08C9380818F73808380818068808380E0B1
S1130AD0E9C319821A821B821C821092F7009A8140
S1130AE09295969597708B81880F880F880F890F40
S1130AF08093F60099819295969597708A81880FD4
S1130B00880F880F890F8093F5008981880F880FDB
S1130B10880F44EF50E0FA018083EFEEF0E090811B
S1130B20D8011A968C911A97892B80831E961C9251
S1130B30DA018C9184608C9380EF90E0DC012C913D
S1130B402B7F2C93DA018C918E7F8C9380818F7311
S1130B50808380818068808380E0A4C319821A82A4
S1130B601B821C821092F7009A8192959695977039
S1130B708B81880F880F880F890F8093F6009981E5
S1130B809295969597708A81880F880F880F890FA0
S1130B908093F5008981880F880F880F44EF50E017
S1130BA0FA018083EFEEF0E09081D8011A968C91DF
S1130BB01A97892B808381E01E968C93DA018C919D
S1130BC084608C9380EF90E0DC012C9124602C9362
S1130BD080818F7D8083DA018C918E7F8C938081DC
S1130BE08F73808380818068808380E05BC3F80199
S1130BF08785882309F462C09481929596959770AD
S1130C008581880F880F880F890F8093F300938163
S1130C109295969597708481880F880F880F890F15
S1130C208093F20092819295969597708381880FB4
S1130C30880F880F890F8093F1008281880F880FB5
S1130C40880F8093F000EFEEF0E080818061808374
S1130C50D80118969C911897929596959770199625
S1130C608C911997880F880F880F890F8093F7004C
S1130C7017969C91179792959695977018968C91C4
S1130C801897880F880F880F890F8093F60016969F
S1130C909C91169792959695977017968C911797A5
S1130CA0880F880F880F890F8093F50016968C9112
S1130CB0880F880F880F8093F4004EC0F80182815A
S1130CC08695869586959381F0E29F9F800D1124E9
S1130CD08093F300D80112968C9112978295880F15
S1130CE0807E8093F200EFEEF0E080818F7E80833F
S1130CF018969C91189792959695977019968C9141
S1130D001997880F880F880F890F8093F70017961B
S1130D109C91179792959695977018968C91189721
S1130D20880F880F880F890F8093F60016969C9180
S1130D30169792959695977017968C911797880F9A
S1130D40880F880F890F8093F50016968C91880F71
S1130D50880F880F8093F400EFEEF0E09081D801C3
S1130D601A968C91892B8083A4EFB0E08C918B7FB1
S1130D708C938C9181608C9380818F73808380812C
S1130D808068808380E08EC2F8018785882309F417
S1130D9062C094819295969597708581880F880F8B
S1130DA0880F890F8093F30093819295969597709D
S1130DB08481880F880F880F890F8093F2009281B5
S1130DC09295969597708381880F880F880F890F65
S1130DD08093F1008281880F880F880F8093F00040
S1130DE0EFEEF0E0808180618083D80118969C91B9
S1130DF0189792959695977019968C911997880FD4
S1130E00880F880F890F8093F70017969C91179786
S1130E1092959695977018968C911897880F880FCD
S1130E20880F890F8093F60016969C9116979295D9
S1130E309695977017968C911797880F880F880F3F
S1130E40890F8093F50016968C91880F880F880F70
S1130E508093F4004EC0F80182818695869586952C
S1130E609381F0E29F9F800D11248093F300D801B9
S1130E7012968C9112978295880F807E8093F2004F
S1130E80EFEEF0E080818F7E808318969C91189716
S1130E9092959695977019968C911997880F880F4B
S1130EA0880F890F8093F70017969C911797929556
S1130EB09695977018968C911897880F880F880FBD
S1130EC0890F8093F60016969C91169792959695A5
S1130ED0977017968C911797880F880F880F890F32
S1130EE08093F50016968C91880F880F880F809355
S1130EF0F400E0E0F1E08081869586958695918105
S1130F00B0E29B9F800D11248093F700808182952D
S1130F10880F807E8093F600EFEEF0E09081D80198
S1130F201A968C911A97892B80831E961C9244EFF3
S1130F3050E0DA018C9184608C9380EF90E0DC01C6
S1130F402C912B7F2C93DA018C9181608C9380817E
S1130F508F73808380818068808380E0A3C1F801DF
S1130F608785882369F194819295969597708581F8
S1130F70880F880F880F890F8093F30093819295CF
S1130F80969597708481880F880F880F890F8093B6
S1130F90F20092819295969597708381880F880FBD
S1130FA0880F890F8093F1008281880F880F880F42
S1130FB08093F000EFEEF0E080818061808317C0C1
S1130FC082818695869586959381B0E29B9F800D5C
S1130FD011248093F300F80182818295880F807E2A
S1130FE08093F200EFEEF0E080818F7E80838FEFBC
S1130FF09FEFDC0189839A83AB83BC838093F700E2
S11310009A819295969597708B81880F880F880F97
S1131010890F8093F60099819295969597708A81AD
S1131020880F880F880F890F8093F5008981880FB6
S1131030880F880F44EF50E0DA018C93EFEEF0E074
S11310409081D8011A968C911A97892B808381E01C
S11310501E968C93DA018C9184608C9380EF90E0DF
S1131060DC012C9124602C9380818F7D8083DA01B4
S11310708C9181608C9380818F7380838081806860
S1131080808380E00FC180E02AEF30E0D8011B9616
S1131090ED91FC911C97E80FF11D9081F90190836B
S11310A08F5F1A969C91891788F319821A821B8282
S11310B01C821092F7009A819295969597708B8175
S11310C0880F880F880F890F8093F6009981929575
S11310D0969597708A81880F880F880F890F80935F
S11310E0F5008981880F880F880F44EF50E0DA01FA
S11310F08C93EFEEF0E09081D8011A968C911A97B8
S1131100892B808381E01E968C93DA018C91846014
S11311108C9380EF90E0DC012C9124602C938081EF
S113112080628083DA018C918E7F8C9380818F73AF
S1131130808380818068808380E0B4C0F8018785E3
S1131140882369F194819295969597708581880F8B
S1131150880F880F890F8093F30093819295969559
S113116097708481880F880F880F890F8093F2000D
S113117092819295969597708381880F880F880F36
S1131180890F8093F1008281880F880F880F8093E4
S1131190F000EFEEF0E080818061808317C08281EF
S11311A08695869586959381B0E29B9F800D112448
S11311B08093F300F80182818295880F807E80936A
S11311C0F200EFEEF0E080818F7E8083D8011A96E2
S11311D08C91882391F080E02AEF30E0D8011B96AF
S11311E0ED91FC911C97E80FF11D9081F90190831A
S11311F08F5F1A969C91891788F38FEF9FEFDC011C
S113120089839A83AB83BC838093F7009A819295F8
S1131210969597708B81880F880F880F890F80931C
S1131220F60099819295969597708A81880F880F18
S1131230880F890F8093F5008981880F880F880FA4
S113124044EF50E0DA018C93EFEEF0E09081D801A6
S11312501A968C911A97892B808381E01E968C9321
S1131260DA018C9184608C9380EF90E0DC012C9106
S113127024602C93808180628083DA018C91816068
S11312808C9380818F73808380818068808380E0E9
S113129009C0F801158680E005C08FE1D8011D96CC
S11312A08C938FEF0F900F900F900F90DF91CF9151
S11312B01F910F910895CF93C62F60E00E94770A83
S11312C061E08C2F0E94770ACF91089560E08068D6
S11312D00E94770A61E080E00E94770A08958130D5
S11312E039F050F0823031F0833031F061E005C0E4
S11312F068E003C060E101C060E08BE10E945B092B
S11313000895843071F028F4813089F0823039F006
S113131004C0853041F0863041F060E009C062E0ED
S113132007C063E005C064E003C065E001C061E09C
S11313308AE10E945B090895682F89E10E945B0994
S11313400895CF93DF93EC0160E18AE60E945B0984
S113135060E88BE60E945B0987EA91E60197F1F762
S113136000C0000067E088E60E945B0987EA91E616
S11313700197F1F700C00000698188810E946F091C
S11313808B810E9481098A810E949C0961E08BE61D
S11313900E945B09DF91CF9108958CB580648CBD68
S11313A00895813061F018F0823091F008952F9AF9
S11313B0279A219A539A8CB580618CBD08952F9AEF
S11313C0279A219A53985B9A8CB580618CBD0895B5
S11313D053985B9A209A8CB58F7E8CBD089581308A
S11313E051F028F0823071F0833099F008958CB573
S11313F0837F8CBD08958CB5877F8CBD8CB584604C
S11314008CBD08958CB588608CBD8CB58B7F8CBDEC
S113141008958CB58C608CBD0895811104C08CB581
S113142080628CBD08958CB58F7D8CBD089590E04D
S11314308730910508F041C0FC01E75BFF4F0C9435
S1131440D30A8CB58C7F8CBD8DB58E7F8DBD0895F0
S11314508CB581608CBD8CB58D7F8CBD8DB58E7F38
S11314608DBD08958CB58E7F8CBD8CB582608CBD8E
S11314708DB58E7F8DBD08958CB583608CBD8DB583
S11314808E7F8DBD08958CB58C7F8CBD8DB58160AC
S11314908DBD08958CB581608CBD8CB58D7F8CBD60
S11314A08DB581608DBD08958CB58E7F8CBD8CB556
S11314B082608CBD8DB581608DBD0895CF93DF931F
S11314C0C82FD62F81E090E00E940D0A80E090E0C2
S11314D00E94D1098D2F90E00E94170A8C2F90E072
S11314E00E94EF090E94CD09DF91CF9108955B9886
S11314F08EBD0DB407FEFDCF61115B9A8EB50895C4
S1131500CF93DF93CDB7DEB7A4970FB6F894DEBFC1
S11315100FBECDBF60E070E080E090E00E946F03FA
S113152060E083E00E945E0A198281E08A838B83F3
S113153085E08C83CE0101960E94A10928E0FE017A
S11315403596DF01822F1D928A95E9F71C8E1B8E3A
S113155081E490E0988B8F872F8B82E08E87F98FC0
S1131560E88FCE010D960E948A038E01035F1F4F00
S1131570802F0E947A008BE30E9466098D8F8CE392
S11315800E9466098E8FE88DF98D8D8D9E8D9183D5
S11315908083ADE3B9E41197F1F700C00000C801FE
S11315A00E948A03E5CFEE0FFF1F0590F491E02D12
S10915B00994F894FFCF3A
S10715B6FFFFFFFF31
S9030000FC
